{
  "contractName": "ChainList",
  "abi": [
    {
      "constant": true,
      "inputs": [
        {
          "name": "",
          "type": "uint256"
        }
      ],
      "name": "articles",
      "outputs": [
        {
          "name": "id",
          "type": "uint256"
        },
        {
          "name": "seller",
          "type": "address"
        },
        {
          "name": "buyer",
          "type": "address"
        },
        {
          "name": "name",
          "type": "string"
        },
        {
          "name": "description",
          "type": "string"
        },
        {
          "name": "price",
          "type": "uint256"
        }
      ],
      "payable": false,
      "stateMutability": "view",
      "type": "function"
    },
    {
      "anonymous": false,
      "inputs": [
        {
          "indexed": true,
          "name": "_id",
          "type": "uint256"
        },
        {
          "indexed": true,
          "name": "_seller",
          "type": "address"
        },
        {
          "indexed": false,
          "name": "_name",
          "type": "string"
        },
        {
          "indexed": false,
          "name": "_price",
          "type": "uint256"
        }
      ],
      "name": "LogSellArticle",
      "type": "event"
    },
    {
      "anonymous": false,
      "inputs": [
        {
          "indexed": true,
          "name": "_id",
          "type": "uint256"
        },
        {
          "indexed": true,
          "name": "_seller",
          "type": "address"
        },
        {
          "indexed": true,
          "name": "_buyer",
          "type": "address"
        },
        {
          "indexed": false,
          "name": "_name",
          "type": "string"
        },
        {
          "indexed": false,
          "name": "_price",
          "type": "uint256"
        }
      ],
      "name": "LogBuyArticle",
      "type": "event"
    },
    {
      "constant": false,
      "inputs": [],
      "name": "kill",
      "outputs": [],
      "payable": false,
      "stateMutability": "nonpayable",
      "type": "function"
    },
    {
      "constant": false,
      "inputs": [
        {
          "name": "_name",
          "type": "string"
        },
        {
          "name": "_description",
          "type": "string"
        },
        {
          "name": "_price",
          "type": "uint256"
        }
      ],
      "name": "sellArticle",
      "outputs": [],
      "payable": false,
      "stateMutability": "nonpayable",
      "type": "function"
    },
    {
      "constant": false,
      "inputs": [
        {
          "name": "_id",
          "type": "uint256"
        }
      ],
      "name": "buyArticle",
      "outputs": [],
      "payable": true,
      "stateMutability": "payable",
      "type": "function"
    },
    {
      "constant": true,
      "inputs": [],
      "name": "getNumberOfArticles",
      "outputs": [
        {
          "name": "",
          "type": "uint256"
        }
      ],
      "payable": false,
      "stateMutability": "view",
      "type": "function"
    },
    {
      "constant": true,
      "inputs": [],
      "name": "getArticlesForSale",
      "outputs": [
        {
          "name": "",
          "type": "uint256[]"
        }
      ],
      "payable": false,
      "stateMutability": "view",
      "type": "function"
    }
  ],
  "bytecode": "0x6080604052336000806101000a81548173ffffffffffffffffffffffffffffffffffffffff021916908373ffffffffffffffffffffffffffffffffffffffff160217905550610d36806100536000396000f300608060405260043610610078576000357c0100000000000000000000000000000000000000000000000000000000900463ffffffff1680631cc4baa81461007d57806341c0e1b51461009d5780637f6be3da146100b457806389da85d314610120578063d26095151461014b578063edcfafe614610204575b600080fd5b61009b6004803603810190808035906020019092919050505061038a565b005b3480156100a957600080fd5b506100b2610679565b005b3480156100c057600080fd5b506100c961070e565b6040518080602001828103825283818151815260200191508051906020019060200280838360005b8381101561010c5780820151818401526020810190506100f1565b505050509050019250505060405180910390f35b34801561012c57600080fd5b50610135610889565b6040518082815260200191505060405180910390f35b34801561015757600080fd5b50610202600480360381019080803590602001908201803590602001908080601f0160208091040260200160405190810160405280939291908181526020018383808284378201915050505050509192919290803590602001908201803590602001908080601f016020809104026020016040519081016040528093929190818152602001838380828437820191505050505050919291929080359060200190929190505050610893565b005b34801561021057600080fd5b5061022f60048036038101908080359060200190929190505050610ab9565b604051808781526020018673ffffffffffffffffffffffffffffffffffffffff1673ffffffffffffffffffffffffffffffffffffffff1681526020018573ffffffffffffffffffffffffffffffffffffffff1673ffffffffffffffffffffffffffffffffffffffff1681526020018060200180602001848152602001838103835286818151815260200191508051906020019080838360005b838110156102e35780820151818401526020810190506102c8565b50505050905090810190601f1680156103105780820380516001836020036101000a031916815260200191505b50838103825285818151815260200191508051906020019080838360005b8381101561034957808201518184015260208101905061032e565b50505050905090810190601f1680156103765780820380516001836020036101000a031916815260200191505b509850505050505050505060405180910390f35b60008060025411151561039c57600080fd5b6000821180156103ae57506002548211155b15156103b957600080fd5b60016000838152602001908152602001600020905060008160020160009054906101000a900473ffffffffffffffffffffffffffffffffffffffff1673ffffffffffffffffffffffffffffffffffffffff1614151561041757600080fd5b8060010160009054906101000a900473ffffffffffffffffffffffffffffffffffffffff1673ffffffffffffffffffffffffffffffffffffffff163373ffffffffffffffffffffffffffffffffffffffff161415151561047657600080fd5b80600501543414151561048857600080fd5b338160020160006101000a81548173ffffffffffffffffffffffffffffffffffffffff021916908373ffffffffffffffffffffffffffffffffffffffff1602179055508060010160009054906101000a900473ffffffffffffffffffffffffffffffffffffffff1673ffffffffffffffffffffffffffffffffffffffff166108fc349081150290604051600060405180830381858888f19350505050158015610535573d6000803e3d6000fd5b508060020160009054906101000a900473ffffffffffffffffffffffffffffffffffffffff1673ffffffffffffffffffffffffffffffffffffffff168160010160009054906101000a900473ffffffffffffffffffffffffffffffffffffffff1673ffffffffffffffffffffffffffffffffffffffff16837f5d28bc06e6f0c45405abfe77bd77236c767f9bd9d044ae2d954a415a2b4823e084600301856005015460405180806020018381526020018281038252848181546001816001161561010002031660029004815260200191508054600181600116156101000203166002900480156106665780601f1061063b57610100808354040283529160200191610666565b820191906000526020600020905b81548152906001019060200180831161064957829003601f168201915b5050935050505060405180910390a45050565b6000809054906101000a900473ffffffffffffffffffffffffffffffffffffffff1673ffffffffffffffffffffffffffffffffffffffff163373ffffffffffffffffffffffffffffffffffffffff161415156106d457600080fd5b6000809054906101000a900473ffffffffffffffffffffffffffffffffffffffff1673ffffffffffffffffffffffffffffffffffffffff16ff5b606080600080606060006002546040519080825280602002602001820160405280156107495781602001602082028038833980820191505090505b50945060009350600192505b600254831115156107fe5760006001600085815260200190815260200160002060020160009054906101000a900473ffffffffffffffffffffffffffffffffffffffff1673ffffffffffffffffffffffffffffffffffffffff1614156107f157600160008481526020019081526020016000206000015485858151811015156107da57fe5b906020019060200201818152505083806001019450505b8280600101935050610755565b8360405190808252806020026020018201604052801561082d5781602001602082028038833980820191505090505b509150600090505b8381101561087e57848181518110151561084b57fe5b90602001906020020151828281518110151561086357fe5b90602001906020020181815250508080600101915050610835565b819550505050505090565b6000600254905090565b60026000815480929190600101919050555060c06040519081016040528060025481526020013373ffffffffffffffffffffffffffffffffffffffff168152602001600073ffffffffffffffffffffffffffffffffffffffff168152602001848152602001838152602001828152506001600060025481526020019081526020016000206000820151816000015560208201518160010160006101000a81548173ffffffffffffffffffffffffffffffffffffffff021916908373ffffffffffffffffffffffffffffffffffffffff16021790555060408201518160020160006101000a81548173ffffffffffffffffffffffffffffffffffffffff021916908373ffffffffffffffffffffffffffffffffffffffff16021790555060608201518160030190805190602001906109cb929190610c65565b5060808201518160040190805190602001906109e8929190610c65565b5060a082015181600501559050503373ffffffffffffffffffffffffffffffffffffffff166002547fe2ebb0c522a8b90a93f45a5dfd3c0e0516b81519fdf199efe51c474642fe8cec85846040518080602001838152602001828103825284818151815260200191508051906020019080838360005b83811015610a79578082015181840152602081019050610a5e565b50505050905090810190601f168015610aa65780820380516001836020036101000a031916815260200191505b50935050505060405180910390a3505050565b60016020528060005260406000206000915090508060000154908060010160009054906101000a900473ffffffffffffffffffffffffffffffffffffffff16908060020160009054906101000a900473ffffffffffffffffffffffffffffffffffffffff1690806003018054600181600116156101000203166002900480601f016020809104026020016040519081016040528092919081815260200182805460018160011615610100020316600290048015610bb75780601f10610b8c57610100808354040283529160200191610bb7565b820191906000526020600020905b815481529060010190602001808311610b9a57829003601f168201915b505050505090806004018054600181600116156101000203166002900480601f016020809104026020016040519081016040528092919081815260200182805460018160011615610100020316600290048015610c555780601f10610c2a57610100808354040283529160200191610c55565b820191906000526020600020905b815481529060010190602001808311610c3857829003601f168201915b5050505050908060050154905086565b828054600181600116156101000203166002900490600052602060002090601f016020900481019282601f10610ca657805160ff1916838001178555610cd4565b82800160010185558215610cd4579182015b82811115610cd3578251825591602001919060010190610cb8565b5b509050610ce19190610ce5565b5090565b610d0791905b80821115610d03576000816000905550600101610ceb565b5090565b905600a165627a7a72305820331bd3ad22448ebed3a63b9d4ff66264db4604f1a15cd93241a5bce0da0c18630029",
  "source": "pragma solidity ^0.4.23;\n\nimport \"./Ownable.sol\";\n\ncontract ChainList is Ownable {\n\n    /**\n     * custum types\n     *\n     * structure: 複数の変数を一つにまとめて管理可能なカスタム型\n     * （構造体自体に実体は無く、初期化されオブジェクト生成されてはじめて実体を持つ）\n     *\n     * Article articles = Article(value1, value2, ...)\n     * と初期化を行ない、オブジェクトを変数に格納できる。\n     *\n     * articles.uint とアクセス可能。\n     */\n    struct Article {        // Array\n        uint id;            // BigNumber\n        address seller;     // String\n        address buyer;\n        string name;\n        string description;\n        uint256 price;\n    }\n\n    /**\n     * state variables\n     *\n     * state variables が public だと getterが自動生成\n     * instance.articles(key)で、valueへアクセス可\n     */\n    mapping (uint => Article) public articles;\n    uint articleCounter;\n\n    /**\n     * events\n     */\n    event LogSellArticle(\n        uint indexed _id,\n        address indexed _seller,\n        string _name,\n        uint256 _price\n    );\n    event LogBuyArticle(\n        uint indexed _id,\n        address indexed _seller,\n        address indexed _buyer,\n        string _name,\n        uint256 _price\n    );\n\n    /**\n     * Contract を破棄し owner に contract残高を送付する\n     *\n     * state変数は破棄され、関数は無効化される。\n     * ただし、transaction callは可能で、gasも消費される\n     */\n    function kill() public onlyOwner {\n        selfdestruct(owner);\n    }\n\n    /**\n     * 商品を売る\n     */\n    function sellArticle(string _name, string _description, uint256 _price) public {\n\n        // 全商品数を記録するカウンタ更新\n        articleCounter++;\n\n        // 連想配列のvalue構造体に出品情報を記録\n        articles[articleCounter] = Article(\n            articleCounter, // id\n            msg.sender,     // seller\n            0x0,            // buyer\n            _name,          // name\n            _description,   // description\n            _price          // price\n        );\n\n        emit LogSellArticle(articleCounter, msg.sender, _name, _price);\n    }\n\n\n    /**\n     * 商品を買う\n     *\n     * article.buyer に買い手のアドレス登録\n     * article.seller へ送金\n     */\n    function buyArticle(uint _id) public payable {\n\n        // 商品が買える状態にあるかどうか\n        require(articleCounter > 0);\n        // 購買希望商品が存在しているか（商品IDが、1以上で存在しているカウント以下）\n        require(_id > 0 && _id <= articleCounter);\n\n        // 構造体の実体を参照\n        // struct, array, mapping型ローカル変数は、storage がデフォルトだが、\n        // コンパイラが警告するため明示する\n        Article storage article = articles[_id];\n\n        // まだ買い手がついていないか\n        require(article.buyer == 0x0);\n        // sellerがbuyerになれないように\n        require(msg.sender != article.seller);\n        // 送金金額が商品金額と一致しているか\n        require(msg.value == article.price);\n\n        // 買い手として記録\n        article.buyer = msg.sender;\n        // 売り手へ送金\n        article.seller.transfer(msg.value);\n        // require(article.seller.send(msg.value)); // 左記でも同様\n\n        emit LogBuyArticle(_id, article.seller, article.buyer, article.name, article.price);\n    }\n\n\n    /**\n     * 全商商品数をget\n     *\n     * @return (uint)\n     */\n    function getNumberOfArticles() public view returns (uint) {\n        return articleCounter;\n    }\n\n\n    /**\n     * 販売中商品IDをget\n     * （販売中か否かは、buyer変数にアドレスが格納されているか否か）\n     *\n     * @return (uint[])\n     */\n    function getArticlesForSale() public view returns (uint[]) {\n\n        // memoryへ格納する固定長配列（長さ変更不可）\n        // （ローカル配列は固定長でなくてはならない）\n        //\n        // これまでの全商品を上限とする固定長配列を作成\n        uint[] memory articleIdsArr = new uint[](articleCounter);\n\n        // 販売中商品数\n        uint numberOfArticlesForSale = 0;\n\n        // articleCounterのスタートが1からのため、1スタート\n        for(uint i = 1; i <= articleCounter; i++) {\n            // 配列に、商品IDを格納していく\n            if(articles[i].buyer == 0x0) {\n                articleIdsArr[numberOfArticlesForSale] = articles[i].id;\n                numberOfArticlesForSale++; //販売中商品数カウンタ更新\n            }\n        }\n\n        // 販売中商品数の固定長配列\n        uint[] memory forSaleIdsArr = new uint[](numberOfArticlesForSale);\n\n        // より少ない固定長配列へ、全商品数分の長さを持つ配列から配列要素をコピー\n        for(uint j = 0; j < numberOfArticlesForSale; j++) {\n            forSaleIdsArr[j] = articleIdsArr[j];\n        }\n\n        return forSaleIdsArr;\n    }\n\n}",
  "sourcePath": "/Users/tanaka-katsunori/git/github/ecouffes/chainlist/contracts/ChainList.sol",
  "compiler": {
    "name": "solc",
    "version": "0.4.23+commit.124ca40d.Emscripten.clang"
  },
  "schemaVersion": "2.0.0",
  "updatedAt": "2018-05-06T05:27:06.851Z"
}